:100000000C94D4060C9405070C9405070C94050772
:100010000C9405070C9405070C9405070C94050730
:100020000C9405070C9405070C9405070C94050720
:100030000C9405070C9405070C9405070C94050710
:100040000C9405070C9405070C9405070C94050700
:100050000C9405070C9405070C9405070C94F722E3
:100060000C9405070C94C1220C9497220C9405075C
:100070000C9405070C9405070C9405070C940507D0
:100080000C9405070C9405070C9405070C940507C0
:100090000C9405070C9405070C9405070C94412358
:1000A0000C9405070C9405070C9405070C940507A0
:1000B0000C9405070C9405070C9405070C94050790
:1000C0000C9405070C9405070C9405070C94050780
:1000D0000C9405070C9405070C9405070C94050770
:1000E0000C9405070C9492220C94F02A0C94151A87
:1000F0000C94EC1A0C947E220C9460220C941D0932
:100100000C94411A0C940D140C94E5130C94850C6A
:100110000C946C070C946A220C9401140C947307D1
:100120000C9421090C9498070C94F4080C945B0C23
:100130000C94BD150C94481D0C94C4150C942E0FF2
:100140000C94FC080C9405220C94D4070C943D22CA
:100150000C9470070C94181A0C9475140C94C50721
:100160000C9411130C94FB210C94661A0C94401AF5
:100170000C94730E0C94F6070C942C0E0C942A0914
:100180000C94EA080C946D070C9474220C94991248
:100190000C9409090C942E130C94D9190C9413097E
:1001A0000C9425090C947B080C9488220C94441A16
:1001B0000C94421A0C9447220C940F220C942E0893
:1001C0000C9465240C94C81E0C94AA150C940F0969
:1001D0000C94F0080C94FF080C9433220C9417092B
:1001E0000C9423220C942B090C94F1150C941922D5
:1001F0000C94F8080C943D1A0C9451220C94F513AD
:100200000C94E30D0C943A120C9400220C94ED1C07
:100210000C94A51B0C942F090C9468110C94C41D0C
:100220000C9472070C94E8070C942B220C9405098B
:100230000C948D1E0C949B150C942C1A0C94211567
:1002400000FF2F2700012F2900A300012F2A00A360
:10025000004572726F722072656164696E67206812
:10026000756D69646974792100250048756D69644C
:100270006974793A200043200054656D706572619D
:10028000747572653A20004572726F7220726561F2
:1002900064696E672074656D7065726174757265EE
:1002A000210000000000003E5B4F5B3E3E6B4F6B49
:1002B0003E1C3E7C3E1C183C7E3C181C577D571C47
:1002C0001C5E7F5E1C00183C1800FFE7C3E7FF00C0
:1002D00018241800FFE7DBE7FF30483A060E26290E
:1002E000792926407F050507407F05253F5A3CE7D1
:1002F0003C5A7F3E1C1C08081C1C3E7F14227F2297
:10030000145F5F005F5F06097F017F006689956A61
:10031000606060606094A2FFA29408047E040810EC
:10032000207E201008082A1C08081C2A08081E1015
:100330001010100C1E0C1E0C30383E3830060E3ECD
:100340000E06000000000000005F0000000700072C
:1003500000147F147F14242A7F2A12231308646256
:1003600036495620500008070300001C22410000B7
:1003700041221C002A1C7F1C2A08083E0808008015
:1003800070300008080808080000606000201008AD
:1003900004023E5149453E00427F400072494949AE
:1003A000462141494D331814127F102745454539E0
:1003B0003C4A4949314121110907364949493646E4
:1003C0004949291E000014000000403400000008C4
:1003D0001422411414141414004122140802015967
:1003E00009063E415D594E7C1211127C7F494949F4
:1003F000363E414141227F4141413E7F4949494189
:100400007F090909013E414151737F0808087F00B7
:10041000417F41002040413F017F081422417F403D
:100420004040407F021C027F7F0408107F3E414114
:10043000413E7F090909063E4151215E7F09192984
:1004400046264949493203017F01033F4040403F6E
:100450001F2040201F3F4038403F631408146303AF
:10046000047804036159494D43007F41414102042E
:10047000081020004141417F040201020440404035
:100480004040000307080020545478407F2844442B
:10049000383844444428384444287F385454541845
:1004A00000087E090218A4A49C787F080404780040
:1004B000447D40002040403D007F10284400004122
:1004C0007F40007C047804787C0804047838444435
:1004D0004438FC1824241818242418FC7C0804042C
:1004E00008485454542404043F44243C4040207C95
:1004F0001C2040201C3C4030403C44281028444CE8
:100500009090907C4464544C4400083641000000B4
:10051000770000004136080002010204023C262355
:10052000263C1EA1A161123A4040207A385454550D
:1005300059215555794122545478422155547840D7
:1005400020545579400C1E5272123955555559395F
:100550005454545939555454580000457C410002B4
:10056000457D420001457C407D1211127DF0282519
:1005700028F07C545545002054547C547C0A097F53
:100580004932494949323A4444443A324A48483067
:100590003A4141217A3A42402078009DA0A07D3D19
:1005A0004242423D3D4040403D3C24FF2424487EA1
:1005B0004943662B2FFC2F2BFF0929F620C0887E8C
:1005C000090320545479410000447D413048484A91
:1005D00032384040227A007A0A0A727D0D19317D44
:1005E0002629292F28262929292630484D40203818
:1005F0000808080808080808382F10C8ACBA2F10D7
:100600002834FA00007B000008142A142222142A3D
:1006100014085500550055AA55AA55AAFF55FF556F
:10062000FF000000FF00101010FF00141414FF0062
:100630001010FF00FF1010F010F0141414FC001440
:1006400014F700FF0000FF00FF1414F404FC14145E
:1006500017101F10101F101F1414141F001010105B
:10066000F0000000001F101010101F10101010F0EC
:1006700010000000FF101010101010101010FF10CC
:10068000000000FF140000FF00FF00001F10170013
:1006900000FC04F414141710171414F404F40000EC
:1006A000FF00F714141414141414F700F71414149E
:1006B000171410101F101F141414F4141010F0103D
:1006C000F000001F101F0000001F14000000FC14A9
:1006D0000000F010F01010FF10FF141414FF14109D
:1006E00010101F00000000F010FFFFFFFFFFF0F0F0
:1006F000F0F0F0FFFFFF0000000000FFFF0F0F0F02
:100700000F0F3844443844FC4A4A4A347E020206F9
:1007100006027E027E0263554941633844443C042C
:10072000407E201E2006027E020299A5E7A5991CA4
:100730002A492A1C4C7201724C304A4D4D303048C7
:10074000784830BC625A463D3E494949007E010125
:10075000017E2A2A2A2A2A44445F444440514A44BA
:100760004040444A51400000FF0103E080FF000088
:1007700008086B6B083612362436060F090F060080
:100780000018180000001010003040FF0101001F89
:1007900001011E00191D1712003C3C3C3C000000EA
:1007A0000000000103070F1F3F7F0080C0E0F0F84A
:1007B000FCFE00002100240027002A002D0030004C
:1007C000330001010000040107010A01DB40A4A677
:1007D0002EAF2000A1C8D300408DAED580A8000068
:1007E000600000000000000000000000000000E0C9
:1007F0000000000000000000000000000001E00018
:1008000000000000000000000000000001F00000F7
:10081000000000000000000000000003F0000000E5
:100820000000000000000000000007F000000000D1
:1008300000000000000000000007F80000000000B9
:1008400000000000000000000FF800000003C000DE
:100850007E000001E0007F0FF800000003C000FEF2
:10086000000001E000FFEFF800000003C000FE0000
:100870000001E000FFFFF800000003C000F00000EE
:10088000000F007FFE7FC0000003C000F0000000EA
:100890000F003FFE7FF83FF1FBCFFCFEF3BC3DEFC6
:1008A000E01FFE7FFF7FFBFFDFFEFEFFBC3DEFE0B2
:1008B0001FC6FFFF7FFBFFDFFEFEFFBC3DEFE00F2B
:1008C000E3C7FE787BC3DE1EF0FFBC3DEF0007FFF1
:1008D00087FC787BC3DE1EF0F83C3DEF0001FFFF94
:1008E000F0007BC3C01EF0F03C3DEF0001F37FE061
:1008F0003FFBC3CFFEF0F03C3DEF0003E33F807FC2
:10090000FBC3DFFEF0F03C3DEF0007E73C00787BE7
:10091000C3DE1EF0F03C3DEF0007FFBE00787BC356
:10092000DE1EF0F03C3DEF0007FFFE00787BC3DEEB
:100930001EF0F03C3DEF000FFFFE007FFBFFDFFEEF
:10094000F0F03FFDEFE00FFFFF007FFBFFDFFEF069
:10095000F03FFDEFE00FF9FF003E79F9CF9EF0F098
:100960001F3DE7E01FF1FF00000000000000000055
:100970000000001F80FF007FFFFFFFFFFFFFFFFF62
:10098000FFE01C007F007FFFFFFFFEB46D888D1825
:10099000E000001F007FFFFFFFFE95AD7DB577E013
:1009A00000000F007FFFFFFFFEA5AD9D8D19E00049
:1009B0000006007FFFFFFFFEB5ADEDB57EE0000055
:1009C0000000000180000000000000000000038023
:1009D00000000000000000000007C0000000000050
:1009E0000000000007C00000000000000000000F31
:1009F000C00000000000000000001FE00000000038
:100A000000000000001FE0000000000000000000E7
:100A10003FE00000000000000000003FF000000088
:100A20000000000000007FF0000000000000001F38
:100A3000F87FF0000000000000003FFE7FF00000A3
:100A400000000000003FFF7FF000000000000000F9
:100A50001FFFFBE0000000000000000FFFF9FFC0D7
:100A60000000000000000FFFF9FFF8000000000088
:100A70000007FFF1FFFF00000000000003FC73FF10
:100A8000FF80000000000001FE3FFFFF800000002B
:100A9000000000FF1E0FFF000000000000007FFEAE
:100AA0001FFC000000000000003FFFFFF8000000F6
:100AB000000000000FDFFFE0000000000000001F4A
:100AC00019FFC0000000000000003F3CFF000000D4
:100AD00000000000007E7CF8000000000000000024
:100AE0007FFE7C0000000000000000FFFFFC000013
:100AF000000000000000FFFFFE00000000000000FA
:100B000000FFFFFE0000000000000001FFEFFE00FC
:100B100000000000000001FFCFFE00000000000008
:100B20000003FF07FE0000000000000003FC07FEBA
:100B30000000000000000003F003FE0000000000C1
:100B40000000018000FE0000000000000000000026
:100B50007E000000000000000000003E00000000D9
:100B60000000000000000C000000000000078000F2
:100B7000FC000003C0000000078001FC000003C06F
:100B8000000000078001FC000003C0000000078097
:100B900001E00000001E000000078001E0000000EE
:100BA0001E007FE3F79FF9FDE7787BDFC0FFF7FFCB
:100BB000BFFDFDFF787BDFC0FFF7FFBFFDFDFF78C6
:100BC0007BDFC0F0F787BC3DE1FF787BDE00F0F70C
:100BD00087BC3DE1F0787BDE0000F787803DE1E0F7
:100BE000787BDE007FF7879FFDE1E0787BDE00FF0A
:100BF000F787BFFDE1E0787BDE00F0F787BC3DE1E1
:100C0000E0787BDE00F0F787BC3DE1E0787BDE003A
:100C1000F0F787BC3DE1E0787BDE00FFF7FFBFFD2A
:100C2000E1E07FFBDFC0FFF7FFBFFDE1E07FFBDF1F
:100C3000C07CF3F39F3DE1E03E7BCFC000000000AD
:100C400000000000000000FFFFFFFFFFFFFFFFFFAD
:100C5000FFC0FFFFFFFFFD68DB111A31C0FFFFFF80
:100C6000FFFD2B5AFB6AEFC0FFFFFFFFFD4B5B3B15
:100C70001A33C0FFFFFFFFFD6B5BDB6AFDC0205333
:100C80002E4F2E442E412020204D414348494E45B1
:100C9000202000000020002300260029002C002F27
:100CA0000032000001000003010601090100000AF2
:100CB0000B02090C0D0E08070304010000000000E0
:100CC0000000000000000000000000000000000024
:100CD00000000000000000000012111000000000E1
:100CE0000000000000000000000000000000000004
:100CF0000000002200FF210000FF2F26000102104B
:100D00002020080810204010204080020102010825
:100D100004020101020408102040808040201008D5
:100D2000040201800402018040201008040201082E
:100D3000040201010204081020408001020408108E
:100D400020408000002200250028002B002E0031CA
:100D500000340002010000050108010B0105050532
:100D600005070508080808020202020A0A08080422
:100D70000404040101010101010101030303030350
:100D8000030303040707070C0C0C0C0C0C0C0C02DF
:100D900002020206060606060606060B0B0B0B0BE6
:100DA0000B0B0B006524F02A11241FBECFEFD1E2FC
:100DB000DEBFCDBF00E00CBF12E0A0E0B2E0E2E495
:100DC000FDE500E00BBF02C007900D92AE3DB107FC
:100DD000D9F725E0AEEDB2E001C01D92A631B20711
:100DE000E1F716E0C3EDD6E000E006C02197010967
:100DF000802FFE010E94342DC23DD10780E00807FC
:100E0000A9F70E9416260C948F2E0C9400008F9246
:100E10009F92AF92BF92CF92DF92EF92FF920F9389
:100E20001F93FC014B01AA24BB24C52ED62EE72E0E
:100E3000FF24BC2DA42F9091B804B82C992391F0D5
:100E4000A92FB0E0A89D9001A99D300DB89D300D4F
:100E50001124B32E9C9D60011124BD2D949F80010F
:100E60001124A12F4091BE042091B9043091BA04FD
:100E70008091BB04481324C0CF01880F991F8E0FA7
:100E80009F1F820F931FE091BB04E80FF92FF11D04
:100E9000B082E091BC04E80FF92FF11DB0832091DE
:100EA000BD04820F911DFC01A0831F910F91FF9043
:100EB000EF90DF90CF90BF90AF909F908F9008956C
:100EC000CF01880F991F880F991F820F931FFC0174
:100ED000E40FF11D1082D7CF089580E290E00895CD
:100EE0000796089508950895EF92FF920F931F9328
:100EF000CF93DF938C017B01D0E0C0E0F701EC0FD2
:100F0000FD1F6491662361F0D801ED91FC91019081
:100F1000F081E02DC8011995892B11F02196EECFB3
:100F2000CE01DF91CF911F910F91FF90EF90089527
:100F3000AF92BF92CF92DF92EF92FF920F931F93E7
:100F4000CF93DF936C017B018B01040F151FEB0125
:100F50005E01AE18BF08C017D10759F06991D601DC
:100F6000ED91FC910190F081E02DC6011995892B3E
:100F700079F7C501DF91CF911F910F91FF90EF900D
:100F8000DF90CF90BF90AF900895FC01538D448DBA
:100F9000252F30E0842F90E0821B930B541710F024
:100FA000CF96089501970895FC01918D828D981731
:100FB00061F0A28DAE0FBF2FB11D5D968C91928D09
:100FC0009F5F9F73928F90E008958FEF9FEF08953A
:100FD000FC01918D828D981731F0828DE80FF11D03
:100FE000858D90E008958FEF9FEF0895FC01918D1E
:100FF000228D892F90E0805C9F4F821B91098F7317
:10100000992708958CEA93E00E94F60721E0892B46
:1010100009F420E0822F0895FC01A48DA80FB92FB8
:10102000B11DA35ABF4F2C91848D90E001968F7310
:101030009927848FA689B7892C93A089B1898C912F
:10104000837080648C93938D848D981306C002887E
:10105000F389E02D80818F7D80830895EF92FF9248
:101060000F931F93CF93DF93EC0181E0888F9B8DCB
:101070008C8D98131AC0E889F989808185FF15C085
:101080009FB7F894EE89FF896083E889F9898081A8
:101090008370806480839FBF81E090E0DF91CF9177
:1010A0001F910F91FF90EF900895F62E0B8D10E099
:1010B0000F5F1F4F0F731127E02E8C8D8E110CC008
:1010C0000FB607FCFACFE889F989808185FFF5CF53
:1010D000CE010E940C08F1CFEB8DEC0FFD2FF11D1E
:1010E000E35AFF4FF0829FB7F8940B8FEA89FB8990
:1010F00080818062CFCFCF93DF93EC01888D8823EE
:10110000B9F0AA89BB89E889F9898C9185FD03C06A
:10111000808186FD0DC00FB607FCF7CF8C9185FF4F
:10112000F2CF808185FFEDCFCE010E940C08E9CF80
:10113000DF91CF91089580E090E0892B29F00E9403
:10114000020881110E94000080E090E0892B49F0A4
:1011500080E090E0892B29F00E94000081110E941C
:10116000000080E090E0892B49F080E090E0892B3E
:1011700029F00E94000081110E94000080E090E0B0
:10118000892B49F080E090E0892B29F00E94000033
:1011900081110C94000008958150823108F05AC0EA
:1011A000E82FF0E08827E852F74F8F4F0C94342D4A
:1011B000F808FC08EA08F008F4082A09FF080509FD
:1011C00009090F09130917091D0921092A09250908
:1011D0002B092F09809180008F77809380000895DC
:1011E000809180008F7DF9CF80918000877FF5CF3F
:1011F00084B58F7784BD089584B58F7DFBCF8091B2
:10120000B0008F778093B00008958091B0008F7DFB
:10121000F9CF809190008F7780939000089580910E
:1012200090008F7DF9CF80919000877FF5CF8091DE
:10123000A0008F778093A00008958091A0008F7DFB
:10124000F9CF8091A000877FF5CF809120018F7723
:10125000809320010895809120018F7DF9CF8091A6
:101260002001877FF5CF1F93CF93DF93282F30E0A6
:10127000F901E355F34F8491F901E350F34FD49111
:10128000F901E35AF24FC491CC23A9F0162F811132
:101290000E94CC08EC2FF0E0EE0FFF1FED5BF24F49
:1012A000A591B4918FB7F894EC91111108C0D09525
:1012B000DE23DC938FBFDF91CF911F910895DE2B4A
:1012C000F8CFCF93DF9390E0FC01E350F34F2491EC
:1012D000835A924FFC0184918823C9F090E0880FD3
:1012E000991FFC01EE54F84FA591B491FC01ED5B00
:1012F000F24FC591D49161110DC09FB7F8948C91B4
:10130000209582238C938881282328839FBFDF9197
:10131000CF910895623051F49FB7F8943C91822F99
:10132000809583238C93E8812E2BEFCF8FB7F89491
:10133000EC912E2B2C938FBFEACF3FB7F89480917E
:101340008F0390919003A0919103B091920326B5E1
:10135000A89B05C02F3F19F00196A11DB11D3FBFED
:10136000BA2FA92F982F8827BC01CD01620F711DBC
:10137000811D911D42E0660F771F881F991F4A95B6
:10138000D1F708950F931F93CF93DF9300D000D030
:1013900000D0CDB7DEB78091B9049091BA04892B03
:1013A00009F47CC00E949D090091BF041091C00403
:1013B0002091C1043091C20460177107820793071E
:1013C00040F46093BF047093C0048093C104909371
:1013D000C2040091BF041091C0042091C104309157
:1013E000C204601B710B820B930B6C327140810540
:1013F0009105C0F2F8948091B4049091B5049A8359
:101400008983E091B904F091BA04DF0111968081DB
:1014100089879091B004E091C304F091C404809155
:10142000C504992309F445C09081982B9887908131
:10143000809589238F838F818C8388E08B83588567
:101440006F8149853B812C8189819A81508347FD39
:10145000252F3A952083262F39F0441F00C0000025
:101460006083000000C0F2CF38E04D91608300003F
:10147000019761F7F093C404E093C30449873B8369
:101480002C839A83898378940E949D096093BF047A
:101490007093C0048093C1049093C20429960FB640
:1014A000F894DEBF0FBECDBFDF91CF911F910F919A
:1014B00008959081982B98879081809589238F83B8
:1014C0008F818E8388E08D8358856F8149853D812A
:1014D0002E8189819A81508347FD252F00C000C04D
:1014E000208300C000C000C000C000C060830000B6
:1014F000262F3A9541F0441F000000C000C000C0F4
:1015000000C000C0E8CF38E04D9100C0608300C04B
:10151000019709F7F093C404E093C30449873D831E
:101520002E83AFCF8F929F92AF92BF92CF92DF92D6
:10153000EF92FF924B015C010E949D096B017C01BF
:101540000E949D096C197D098E099F09683E7340B0
:1015500081059105A8F321E0821A9108A108B1083C
:1015600088EEC80E83E0D81EE11CF11C81149104A2
:10157000A104B10429F7FF90EF90DF90CF90BF90C6
:10158000AF909F908F900895FC0183898B3051F428
:1015900080E492E4AFE0B0E0FB0184A395A3A6A3AE
:1015A000B7A3089580E894E8AEE1B0E0F5CFCF921C
:1015B000DF92EF92FF92CF93DF93DC011796CC91ED
:1015C0001797D0E06111DC2F18962C91189730E016
:1015D000220F331F2D56334F50E040E0F901859123
:1015E0009491FC01F080BA0190E080E0EF2DEC23B3
:1015F000ED1310C04F5F5F4F1D96CD90DD90ED90C5
:10160000FC9050976C157D058E059F0538F36FEFA4
:101610007FEFCB01DF91CF91FF90EF90DF90CF90E4
:1016200008958F929F92AF92BF92CF92DF92EF92E6
:10163000FF920F931F93CF93DF93CDB7DEB7C054C4
:10164000D1400FB6F894DEBF0FBECDBF2FB7F894D0
:101650004091A8035091A9036091AA037091AB0334
:101660002FBFFC0101851285238534856A017B012A
:10167000C01AD10AE20AF30A97018601003D174019
:1016800021053105B0F4FC018189C05CDE4F0FB645
:10169000F894DEBF0FBECDBFDF91CF911F910F91A8
:1016A000FF90EF90DF90CF90BF90AF909F908F9082
:1016B00008958C01FC0141875287638774871482E7
:1016C000138212821182108262E085810E94610978
:1016D00061E070E080E090E00E94920A61E0F80131
:1016E00085810E94610960E0F80185810E943309CB
:1016F000F80186818551823028F58BE291E10197CE
:10170000F1F762E0F80185810E946109F8018289A0
:1017100090E08230910538F0880F991F880F991F4B
:1017200005970197F1F7F89460E0C8010E94D70A85
:101730006F3F7F4F8F4F9F4F61F4F801118A78946C
:1017400080E0A3CF64E170E080E090E00E94920A24
:10175000D8CF61E0C8010E94D70A6F3F7F4F8F4FFB
:101760009F4F59F3CE0101967C015E019FEBA91AB0
:101770009EEFB90A670160E0C8010E94D70AF6012E
:10178000608371838283938361E0C8010E94D70ADA
:10179000F6016483758386839783F8E0CF0ED11CAE
:1017A000CA14DB0441F7789430E020E0F701808030
:1017B0009180A280B3804481558166817781FFEF5B
:1017C0008F169F06AF06BF0631F04F3F8FEF5807C9
:1017D0006807780719F4F801118AB2CFF90183E09C
:1017E000F595E7958A95E1F7E00FF11F8081880F65
:1017F00084169506A606B706F0F080832F5F3F4F4C
:10180000F8E0EF0EF11C2832310581F6F801448131
:1018100020818181280F3327331F8281280F311DBA
:101820008381820F932F911D99274817190699F6E6
:1018300081E0818B2ACF8160E0CFCF93DC011796C6
:101840008D919C9118978617970760F115968D9149
:101850009C91169750E040E030E020E08417950717
:1018600009F14115510591F01396ED91FC911497F2
:10187000E40FF51FC081C1111AC03197E081EE233A
:1018800011F02F5F3F4F4F5F5F4FE8CF6217730735
:10189000D1F71396ED91FC9114972081211104C08A
:1018A0009B01F1CFF0E0E0E0CF01CF910895621706
:1018B000730749F7F9CFEF92FF920F931F93CF93DE
:1018C000DF938C017B01D0E0C0E0D801ED91FC9169
:1018D0000680F781E02DBE01C8011995882371F0BB
:1018E000D801ED91FC910084F185E02DA701BE01A6
:1018F000C8011995811102C02196E7CFDF91CF91E0
:101900001F910F91FF90EF900895CF92DF92EF9289
:10191000FF920F931F93CF93DF93EC016B0170E065
:1019200060E0C6010E941D0C7C01892B59F110E07A
:1019300000E0E881F9810680F781E02DB801CE0151
:1019400019958823F9F0E881F9810084F185E02D6B
:10195000A701B801CE011995882389F0E881F981A2
:101960000284F385E02DA601B801CE01DF91CF916D
:101970001F910F91FF90EF90DF90CF9019940F5F20
:101980001F4FD7CF80E0DF91CF911F910F91FF9034
:10199000EF90DF90CF900895EF92FF920F931F93F7
:1019A000CF93DF93EC01EC80FD806E157F050CF08A
:1019B00070C057FF04C0240F351F50E040E08E81F7
:1019C0009F81FA01E20FF31F8E179F071CF49C0101
:1019D000241B350B121613060CF05BC0922F842FBC
:1019E0008695869586958E9DD0018F9DB00D11248C
:1019F0006A0F7B1FAF8DB8A1A60FB71F477049F1C3
:101A000088E0841B482F682F70E0FB01E655F84FF3
:101A1000E491281708F063C0621B71092FEF30E0D2
:101A200002C0359527956A95E2F7E223013011054A
:101A300039F0B0F10230110561F58C91E82702C050
:101A40008C91E82BEC93941720F12C813D81A20F0F
:101A5000B31FE92FE41BE83078F00230110521F5BF
:101A60008E2F9C9190959C932C813D81A20FB31F4A
:101A700088508830B0F7E770EE2359F0F0E0EE556B
:101A8000F84FE49101301105F9F010F10230110521
:101A900019F1DF91CF911F910F91FF90EF90089571
:101AA000E0958C91E823CECF81E00115110509F472
:101AB00080E081959E2F8C932C813D81A20FB31FD6
:101AC00098509830C0F7D7CF8C91E82BEC93E1CFAA
:101AD000E0958C91E823FACF8C91E827F7CF01307D
:101AE000110509F4ADCFE0F20230110509F4A5CFDC
:101AF000AE0DBF1DAECF0F931F93CF93DF9377FF34
:101B000004C0260F371F70E060E0DC011496CD9111
:101B1000DC91FB01E20FF31FCE17DF071CF49E01DF
:101B2000261B370B121613064CF5FA0157FD379694
:101B3000A3E0F595E795AA95E1F7EC9FD001ED9F1D
:101B4000B00DFC9FB00D11246A0F7B1FDC015F9666
:101B5000ED91FC91E60FF71F4770552781E090E06B
:101B600001C0880F4A95EAF7482F0130110559F056
:101B7000A8F02E0F3F1F02301105E1F0DF91CF9149
:101B80001F910F9108952E0F3F1FE217F307B1F336
:101B90008191DF011197842B8C93F7CF80952E0FC5
:101BA0003F1FE217F30751F39191DF01119798233B
:101BB0009C93F7CFE217F30709F38191DF011197A7
:101BC00084278C93F7CF0F931F93FA01DC0156966D
:101BD0004C9156974230E9F04330A1F1413061F524
:101BE00014964D915C91DA01AE1BBF0BFD01E21B17
:101BF000F30B77FD0BC0DC0116964D915C916417D9
:101C0000750724F4AB01BF010E947B0D1F910F915A
:101C1000089514964D915C91DA01A61BB70BBD0196
:101C200061507109DC0116964D915C91DA01AE1B91
:101C3000BF0BFD01E21BF30B77FDE8CFAF010E9464
:101C4000CC0CE4CF16964D915C91DA01A61BB70B34
:101C5000BD0161507109CDCF0F931F93FA01DC01D3
:101C600056964C9156974230A9F0433091F141304D
:101C700019F514964D915C91DA01AE1BBF0BFD0175
:101C80003197F7FD04C0AB01BF010E94CC0C1F913E
:101C90000F91089514964D915C91DA01A61BB70B34
:101CA000BD01DC0116964D915C91DA01AE1BBF0BB4
:101CB000FD013197621B730BF7FDE9CFDC0116962E
:101CC0004D915C91E417F50714F7AF010E947B0D6D
:101CD000DECF16964D915C91DA01A61BB70BBD01C4
:101CE000621B730BCECFFC0177FD64C080859185AC
:101CF000681779070CF05EC057FD5CC0828593853C
:101D0000481759070CF056C086898230B1F08330ED
:101D100029F1813041F484819581841B950BAB01BD
:101D2000BC01615071092130310509F108F443C04B
:101D30002230310509F463C0089584819581DC0166
:101D4000A61BB70BBD016150710986819781DC012B
:101D5000A41BB50BAD0141505109E5CF8681978198
:101D6000861B970BBA01AC0141505109DCCFCA0167
:101D700057FD0796A3E095958795AA95E1F7A4816D
:101D8000B5818A9F90018B9F300D9A9F300D112451
:101D9000620F731F078CF0A1E02DE60FF71F47704D
:101DA000552721E030E001C0220F4A95EAF78081F3
:101DB000822B80830895CA0157FD079633E09595DD
:101DC00087953A95E1F7A481B5818A9F90018B9F11
:101DD000300D9A9F300D1124620F731F078CF0A1F4
:101DE000E02DE60FF71F4770552781E090E001C016
:101DF000880F4A95EAF7809590818923DACFCA0146
:101E000057FD079623E0959587952A95E1F7A481DC
:101E1000B5818A9F90018B9F300D9A9F300D1124C0
:101E2000620F731F078CF0A1E02DE60FF71F4770BC
:101E3000552721E030E001C0220F4A95EAF7808162
:101E40008227B7CF08958EBD00000DB407FEFDCFE9
:101E50008EB508958CBD9DBD08950895FC016370F5
:101E6000668B8481958126813781613039F06330BA
:101E700029F09187808733872287089531872087CB
:101E80009387828708952F923F924F925F926F922D
:101E90007F928F929F92AF92BF92CF92DF92EF92FA
:101EA000FF920F931F93CF93DF93CDB7DEB76A975F
:101EB0000FB6F894DEBF0FBECDBF9A8F898F7A839D
:101EC00069834A01D22E18870F833701BC2CDC01AD
:101ED00059962D913C915A972115310509F015C15C
:101EE00018968D919C911997681779070CF0D7C1B6
:101EF0001A968D919C91481759070CF0D0C14C2C23
:101F0000512CB6E0CB9E600D711D11247C876B8730
:101F1000161617060CF0C3C1EA2DF0E0FA87E98720
:101F200093E0EE0FFF1F9A95E1F7F88BEF87CF0153
:101F3000840F951F181619060CF0B1C1A98DBA8D22
:101F400058968C91811104C0BFEABD1508F4D39452
:101F5000A98DBA8DED91FC9111970284F385E02D46
:101F6000CD011995B5E0DB9EC0011124E981FA810C
:101F7000FC83EB83312C212C9C012E553D4F388F57
:101F80002F8B4A2D50E05E8B4D8BEF89F88DE20D43
:101F9000F31D44919E828D82D12CC12C69817A815E
:101FA000620D731D7A8B698B842F90E09C8B8B8BD9
:101FB000E98DFA8DA081B18140FF82C0F1E0BF12AE
:101FC0006FC0AF126DC01C96ED91FC912F813885CA
:101FD000A4014C0D5D1D69897A89898D9A8D1995A9
:101FE000EB89FC89F595E7954E2F5FEFC51AD50A69
:101FF0006D817E818D899E89680F791F7E836D83B7
:1020000098E0C916D10481F6AFEF2A1A3A0AEB819B
:10201000FC81E40DF51DFC83EB83F5E02F16310404
:1020200009F0B3CF2F81388526153705B9F0A98D72
:10203000BA8DED91FC91B1E0BB1257C0AB1255C007
:1020400069817A816B5F7F4F0088F189E02D830180
:1020500028E030E0A401898D9A8D1995A98DBA8D5B
:10206000ED91FC9111970688F789E02DCD016A96D4
:102070000FB6F894DEBF0FBECDBFDF91CF911F9199
:102080000F91FF90EF90DF90CF90BF90AF909F9017
:102090008F907F906F905F904F903F902F9019940A
:1020A0001E96ED91FC91EF80F88409851A859201C6
:1020B0004D815E816B817C81898D9A8D199590CF40
:1020C0002F8138852615370509F48ACF31E0B31200
:1020D00007C0A31205C01C96ED91FC91930178CF27
:1020E0001E96ED91FC917301E0CF6B857C856419A0
:1020F00075090684F785E02D73010F851889920113
:10210000A401898D9A8D1995A9CFF90134969491DE
:10211000329745915491D91AB7E0DB9E400D511D7D
:102120001124F901259134913C8B2B8BFA012590D8
:102130003490FA013296749031963491398B3296FC
:1021400064903196449041E04C1518F04A1508F01F
:102150007FC0662D062C000C770B7C836B83842D4F
:10216000042C000C990B9E838D83A98DBA8DED9163
:10217000FC9111970284F385E02DCD011995512C26
:10218000D12CC12CEA2DF0E0FA87E9872B2D30E025
:102190003C872B87A401440D511D47FC5A95588F4D
:1021A0004F8B69817A81660D711D67FC7A957E87F8
:1021B0006D877989C71608F051CF2C2D30E04D81FD
:1021C0005E81420F531FA985BA854A9FC0014B9F6C
:1021D000900D5A9F900D1124FC01E80DF91DF88B0C
:1021E000EF87852D612C4F89588D420F531F5E8BD1
:1021F0004D8B671408F050C044244394480E8770F8
:1022000041F4C1010196EB89FC89E20DF31DD490E4
:102210001C01D7FE19C0A98DBA8DED91FC91662DD8
:1022200070E0B1E0BB1219C0AB1217C02D853E851E
:10223000620F731F0484F585E02D2F8138854D8949
:102240005E89898D9A8D1995DD0C6394842DD1CF8B
:102250001E821D821C821B8288CF4B815C81640F91
:10226000751FAB85BC856A9FC0016B9F900D7A9FDF
:10227000900D112469817A81680F791F0684F78592
:10228000E02DEF80F88409851A859D014F855889D6
:10229000898D9A8D1995D8CF570CC3948ACF6A9699
:1022A0000FB6F894DEBF0FBECDBFDF91CF911F9167
:1022B0000F91FF90EF90DF90CF90BF90AF909F90E5
:1022C0008F907F906F905F904F903F902F900895E8
:1022D0008F929F92AF92CF92EF92FF920F931F93A4
:1022E000CF93DF93EC01262F898D9A8D009709F00B
:1022F00051C06A30D1F41D861C868D8948E0849FC8
:10230000900111248E859F85820F931F9F878E8752
:1023100081E090E0DF91CF911F910F91FF90EF90BE
:10232000CF90AF909F908F9008956D3089F3CC88B7
:10233000AD888F898823C1F08C859D8536E0C39E4A
:10234000800D911D1124488559854817590764F45B
:102350004E855F851D861C8638E0A39EC001112432
:10236000840F951F9F878E87EA88FB8808891989C3
:102370004E855F856C857D85CE010E94430F2C893B
:102380008C859D8546E0249F800D911D11249D879D
:102390008C87BECF6A3069F41D861C86FC01389696
:1023A000E4912D898E859F85E29F800D911D1124DA
:1023B000ADCF6D3009F4ACCFFC0134963491631786
:1023C00008F4A6CF3296E491E61708F4A1CFFC01F9
:1023D000329685909490462F431B342F47E0349FCC
:1023E000800C911C1124F401329634913196E491C1
:1023F0003323A9F1EE2399F1CC88F4013596E491C9
:10240000AD884F89442301F10E2E000CFF0BE30F22
:10241000F11DCE9EA001CF9E500D11246C857D85AF
:10242000460F571F68857985641775076CF44E85CC
:102430005F851D861C86FC013896E491AE9E400D9A
:10244000511D11245F874E87EA88FB880889198906
:102450004E855F856C857D85CE010E94430FF4011A
:102460003496E4912C898C859D85E29F800D911D89
:1024700011248DCF6F927F928F929F92AF92BF92D5
:10248000CF92DF92EF92FF920F931F93CF93DF9340
:10249000EC016B015A0139014801E881F98102849C
:1024A000F385E02D1995E881F9810288F389E02D03
:1024B00087019301A501B601CE011995A501480D2B
:1024C000591D41505109E881F9810288F389E02DB5
:1024D0009301B601CE011995E881F9810088F1894F
:1024E000E02D9401A501B601CE011995C60CD71CAB
:1024F000B60161507109E881F9810088F189E02D08
:102500009401A501CE011995E881F9810688F78922
:10251000E02DCE01DF91CF911F910F91FF90EF90B1
:10252000DF90CF90BF90AF909F908F907F906F90F3
:1025300019946F927F928F929F92AF92BF92CF9297
:10254000DF92EF92FF920F931F93CF93DF935C0183
:10255000EB016A01490138018701DC01ED91FC9131
:102560006217730719F5641675062CF0962D872DE2
:102570003A01C92ED82E9601261937092F5F3F4FF1
:10258000048CF58DE02DA301BE01C5011995DF91E5
:10259000CF911F910F91FF90EF90DF90CF90BF9060
:1025A000AF909F908F907F906F900895461557053C
:1025B00091F42617370724F0892D4B01C22FD82F0D
:1025C0009E01281939092F5F3F4F068CF78DE02DAA
:1025D000A601B401DACF0284F385E02D1995D50167
:1025E000ED91FC910488F589E02D83019401A60109
:1025F000BE01C5011995D501ED91FC910688F789B9
:10260000E02DC501DF91CF911F910F91FF90EF90C9
:10261000DF90CF90BF90AF909F908F907F906F9002
:102620001994EF92FF920F931F93DC011A960D916C
:102630001C911B9718962D913C911997ED91FC9147
:1026400000A0F1A1E02D7B0150E040E070E060E0EF
:1026500019951F910F91FF90EF9008954F925F92FF
:102660006F927F928F929F92AF92BF92CF92DF92A2
:10267000EF92FF920F931F93CF93DF936C012B0187
:102680005A0139014801DC01ED91FC910284F38586
:10269000E02D1995E201640C751CD601ED91FC91B9
:1026A000C615D7055CF40088F189E02D87019401F7
:1026B000A501BE01C60119952196EFCF0688F789BD
:1026C000E02DC601DF91CF911F910F91FF90EF9008
:1026D000DF90CF90BF90AF909F908F907F906F9042
:1026E0005F904F9019948F929F92AF92BF92CF922A
:1026F000DF92EF92FF920F931F93CF93DF93EC0142
:102700005B014A016901E881F9810284F385E02DCA
:10271000199595012C0D3D1D21503109E881F98154
:102720000488F589E02D78018401A401B501CE016A
:102730001995E881F9810688F789E02DCE01DF91AE
:10274000CF911F910F91FF90EF90DF90CF90BF90AE
:10275000AF909F908F9019948F929F92AF92BF925B
:10276000CF92DF92EF92FF920F931F93CF93DF935D
:10277000EC015B014A0169017801E881F981028479
:10278000F385E02D1995C80CD91C8601015011095B
:10279000E881F9810488F589E02D9501A401B5014E
:1027A000CE011995E881F9810688F789E02DCE01DF
:1027B000DF91CF911F910F91FF90EF90DF90CF901D
:1027C000BF90AF909F908F901994EF92FF920F93CC
:1027D0001F93DC01ED91FC9100A0F1A1E02D199572
:1027E0001F910F91FF90EF9008950F931F93DC01BD
:1027F000ED91FC91068CF78DE02D19951F910F91AD
:1028000008950F931F93DC01ED91FC91048CF58DDD
:10281000E02D19951F910F910895DC01ED91FC9128
:102820000084F185E02D19943F924F925F926F9250
:102830007F928F929F92AF92BF92CF92DF92EF9250
:10284000FF920F931F93CF93DF935C017B014A01AB
:102850006901390187E0680E711C93E075946794F3
:102860009A95E1F72B01400E511E10E000E0312C4B
:10287000D0E0C0E0CE0187709927330C892B59F442
:10288000FE0183E0F595E7958A95E1F7E00FF11FEA
:10289000E80DF91D349037FE0AC021E030E0A701B1
:1028A000B5016C0F7D1F82ED94E00E940D142196FE
:1028B000CC16DD06F9F68FEFE81AF80A060D171D9B
:1028C000E414F504A9F6DF91CF911F910F91FF90C9
:1028D000EF90DF90CF90BF90AF909F908F907F90C0
:1028E0006F905F904F903F9008952F923F924F923C
:1028F0005F926F927F928F929F92AF92BF92CF9290
:10290000DF92EF92FF920F931F93CF93DF9300D04C
:1029100000D0CDB7DEB73C016A013E832D83FC8237
:10292000EB825801A41AB50AB7FE03C0B194A19472
:10293000B1088D809E80861A970A97FE03C09194F5
:10294000819491088A149B045CF0902F812F0D8153
:102950001E819D838E839C2D8D2D6B01692F782F79
:102960000C151D055CF09D818E817E836D83692F22
:10297000782F902F812F8601C92ED82E1601201A6C
:10298000310A2B012D813E81421A530A57FE03C0A2
:10299000519441945108710137FE03C03FEFE31A8F
:1029A000F30AF594E7948D819E81861797075CF56D
:1029B000A1E0B0E0BA83A983C016D1064CF1D301DF
:1029C000ED91FC910484F585E02D2B813C81A801DB
:1029D0006D817E818A149B041CF04D815E81B8015B
:1029E000C3011995E418F508F7FE0AC02D813E8150
:1029F00089819A81280F391F3E832D83E20CF31CB5
:102A00000F5F1F4FD9CF2FEF3FEF3A832983D4CFEA
:102A100026960FB6F894DEBF0FBECDBFDF91CF91E3
:102A20001F910F91FF90EF90DF90CF90BF90AF90EC
:102A30009F908F907F906F905F904F903F902F90DE
:102A40000895089520914403260F3327331F213220
:102A50003105ECF420916803FC0190E080E0243023
:102A600069F082E00895A09144032191AC014C5D8E
:102A70005C4FA40FB52FB11D2C930196861798F3C8
:102A800080914403680F6093440380E0089581E0DF
:102A900008959B01AC0160E074E284EF90E00E9435
:102AA000122D205131094109510956954795379505
:102AB00027952093B80008951092680381E08093D1
:102AC0006A031092690361E084E10E94330961E0C6
:102AD00085E10E943309E9EBF0E080818E7F8083FD
:102AE00080818D7F808388E48093B80085E4809323
:102AF000BC000895CF93DF9391E090932303882344
:102B0000B9F0C091B800D091BA008091BC008A7B26
:102B10008093BC0060E084E10E94330960E085E1BD
:102B20000E9433090E945C15D093BA00C093B8008C
:102B3000DF91CF910895E091990380919803E81770
:102B400030F4F0E0E250FD4F808190E008958FEF87
:102B50009FEF089590919903809198032FEF3FEF95
:102B6000981748F4E92FF0E0E250FD4F208130E063
:102B70009F5F90939903C901089580919803909164
:102B80009903891B990B0895CF92DF92EF92FF92E0
:102B90000F931F93CF93DF937C01CB018A01209188
:102BA000A703222389F0EB016B01C40ED51ECC15BF
:102BB000DD0569F06991D701ED91FC910190F081FB
:102BC000E02DC7011995F3CF642F0E942215C8018B
:102BD000DF91CF911F910F91FF90EF90DF90CF90F9
:102BE0000895CF93DF931F92CDB7DEB7698320910D
:102BF000A7032223F9F02091A403203258F021E00A
:102C000030E0FC013383228390E080E00F90DF917D
:102C1000CF9108958091A503E82FF0E0E252FD4F97
:102C2000998190838F5F8093A5038093A40381E0B3
:102C300090E0ECCF61E0CE0101960E942215F7CF23
:102C4000CF92DF92EF92FF920F931F93CF93DF9378
:102C5000D091A40381E0D13208F09CC0C091A603BA
:102C60000E949D096B017C018091680381116CC0F9
:102C700082E08093680381E080936A038FEF809302
:102C8000670310928C03D0938B03AEEDB2E0EBE6BA
:102C9000F3E080E0D8138DC010928D0380918D03F6
:102CA000CC0FC82BC0938D0380916903813009F04C
:102CB00084C0109269030E949D096B017C01809180
:102CC0008D038093BB0080911F0390912003A091FE
:102CD0002103B0912203892B8A2B8B2BA1F00E9418
:102CE0009D0900911F031091200320912103309131
:102CF00022036C197D098E099F09061717072807FB
:102D0000390708F442C08091BC0083FDD8CF85EC20
:102D10008093BC000E949D096B017C018091680337
:102D2000823009F44CC0809167038F3F09F469C079
:102D300080916703803209F466C080916703803315
:102D400009F463C084E026C080911F0390912003A2
:102D5000A0912103B0912203892B8A2B8B2B09F49C
:102D600083CF0E949D0900911F03109120032091A1
:102D70002103309122036C197D098E099F090617E2
:102D800017072807390708F06FCF80911E030E94AC
:102D90007A1585E01092A5031092A4031092A70360
:102DA000DF91CF911F910F91FF90EF90DF90CF9027
:102DB00008959D9191938F5F6DCF85EEA9CF8091FE
:102DC0001F0390912003A0912103B0912203892B2E
:102DD0008A2B8B2B09F4A2CF0E949D0900911F031F
:102DE0001091200320912103309122036C197D0959
:102DF0008E099F09061717072807390708F08ECF95
:102E0000C4CF80E0C7CF82E0C5CF83E0C3CFEF92CD
:102E1000FF920F931F93CF93DF937C01C62F809176
:102E2000EF049091F004009709F459C02091F30445
:102E300031E03093A7032093A6031092A5031092CC
:102E4000A403DC01ED91FC910190F081E02D60E0A4
:102E500019958701EE24E394F12CD1E0C1508091C3
:102E6000EF049091F004CF3F91F1B0E2EB16F10442
:102E7000D8F00E9420168091EF049091F0042091E8
:102E8000F304D093A7032093A6031092A5031092F6
:102E9000A403DC01ED91FC910190F081E02D60E054
:102EA0001995EE24E394F12C8091EF049091F004B5
:102EB000F8016491DC01ED91FC910190F081E02D2D
:102EC0001995BFEFEB1AFB0A0F5F1F4FC7CFDF91BA
:102ED000CF911F910F91FF90EF900C942016E091ED
:102EE000FF04F0910005908180910505809589236C
:102EF00080838701C15008F438C0F8018491209183
:102F0000ED043091EE04232B29F00E94230F0F5F74
:102F10001F4FF0CF28E030E040E8E091FB04F09153
:102F2000FC0490910305582F5423D9F05081952B20
:102F30009083E091FD04F091FE049081509104058E
:102F4000952B9083E091FD04F091FE0450819091C7
:102F50000405909595239083469521503109E9F613
:102F6000D6CF508190959523E3CFDF91CF911F91DC
:102F70000F91FF90EF9008951F93CF93DF93EC0193
:102F80008D8D9E8D009721F1162F29A131E0309370
:102F9000A7032093A6031092A5031092A403DC01BB
:102FA000ED91FC910190F081E02D60E019958D8DFF
:102FB0009E8DDC01ED91FC910190F081E02D612F5F
:102FC00019958D8D9E8DDF91CF911F910C942016B8
:102FD000ADA5BEA59C918BA9809589238C938B8DE3
:102FE0009C8D892B31F0862FDF91CF911F910C940E
:102FF000230F28E030E080E8A9A5BAA599A9462FBB
:103000004823C1F04C91942B9C93ABA5BCA59C91FB
:103010004AA9942B9C93ABA5BCA54C919AA99095D9
:1030200094239C9386952150310931F7DF91CF91FC
:103030001F9108954C9190959423E6CF8091EF04D1
:103040009091F004892BF9F06091070570910805C3
:103050008091090590910A050E9449156EE282ED62
:1030600094E00E94BC178091EF049091F004892BAA
:1030700009F160910B0570910C0580910D059091FF
:103080000E050C9449158091ED049091EE04892B66
:1030900031F080911005909111050E942A0FE09166
:1030A0000105F091020590818091060580958923A4
:1030B0008083D4CFE0910105F09102058081909149
:1030C0000605892B808308958091EF049091F00488
:1030D000892B99F160910705709108058091090588
:1030E00090910A050E94491562E08BEF9CE00E94D6
:1030F000071760E082ED94E00E94BC1760E082ED6B
:1031000094E00E94BC176FE082ED94E00E94BC172F
:1031100063E088EF9CE00E9407178091EF04909194
:10312000F004892B09F160910B0570910C058091D9
:103130000D0590910E050C9449158091ED04909128
:10314000EE04892B31F080911005909111050E94B9
:103150002A0FE0910105F09102059081809106050A
:10316000809589238083C0CFE0910105F09102050D
:10317000808190910605892B80830895DF92EF92DC
:10318000FF920F931F93CF93DF938091EF04909161
:10319000F004892B09F48AC0609107057091080535
:1031A0008091090590910A050E94491565E083EF19
:1031B0009CE00E9407176091D604615082ED94E074
:1031C0000E94BC172091D8043091D904C9010796F8
:1031D00097FD079623E0959587952A95E1F720912D
:1031E000D6043091D704829F8001839F100D929F57
:1031F000100D1124C091F104D091F2048091EF04DC
:103200009091F0040C0F1D1F009709F480C02091CD
:10321000F30431E03093A7032093A6031092A50393
:103220001092A403DC01ED91FC910190F081E02D5E
:1032300060E41995EE24E394F12CDD24D39480917D
:10324000EF049091F0040C171D0709F446C0B0E29A
:10325000EB16F104D8F00E9420168091EF049091B3
:10326000F0042091F304D092A7032093A6031092B8
:10327000A5031092A403DC01ED91FC910190F08173
:10328000E02D60E41995EE24E394F12C8091EF0495
:103290009091F0046991DC01ED91FC910190F08135
:1032A000E02D1995BFEFEB1AFB0AC9CF8091ED0411
:1032B0009091EE04892B31F08091100590911105C9
:1032C0000E942A0FE0910105F09102059081809102
:1032D000060580958923808369CF0E9420168091FE
:1032E000EF049091F004892B09F452C060910B0512
:1032F00070910C0580910D0590910E05DF91CF9195
:103300001F910F91FF90EF90DF900C944915E09181
:10331000FF04F0910005808190910505892B808341
:103320000C171D07E1F289912091ED043091EE0414
:10333000232B19F00E94230FF3CF28E030E040E860
:10334000E091FB04F091FC0490910305582F542365
:10335000D9F05081952B9083E091FD04F091FE040B
:10336000908150910405952B9083E091FD04F0919C
:10337000FE04508190910405909595239083469585
:1033800021503109E9F6CCCF508190959523E3CFB8
:10339000E0910105F0910205808190910605892B4D
:1033A0008083DF91CF911F910F91FF90EF90DF907D
:1033B00008951F93CF93DF93EC01162F8D8D9E8D73
:1033C000892BC9F06DA97EA98FA998AD0E944915D6
:1033D00066EA111167EACE010E94BC178D8D9E8DA1
:1033E000892BC9F069AD7AAD8BAD9CADDF91CF91E2
:1033F0001F910C9449158B8D9C8D892B21F08EADDE
:103400009FAD0E942A0FEFA5F8A990818CA9809505
:1034100089238083DDCFEFA5F8A980819CA9892B22
:103420008083DF91CF911F91089590E080E008950F
:103430006330710578F46C5F7F4F660F771F680FFC
:10344000791FDB01ED91FC91309721F0CA011995AC
:1034500081E0089580E008956330710560F46F5F46
:103460007F4F660F771F680F791F81E0FB01208176
:103470003181232B09F480E0089583E090E00895E2
:10348000089508950C94D82D0C94D82D2091D8042B
:103490003091D904C901079697FD079623E09595C9
:1034A00087952A95E1F72091D6043091D704829F21
:1034B000A001839F500D929F500D112470E060E099
:1034C0008091F1049091F2040C94662ECF92DF92D9
:1034D000EF92FF920F931F93CF93DF93EB01FB01CA
:1034E000349620E2DF011D922A95E9F744E250E08C
:1034F00060E070E0488359836A837B83FC014581E7
:103500005681678170854C835D836E837F834CE039
:1035100050E060E070E0488759876A877B872FB763
:10352000F8944091A8035091A9036091AA03709167
:10353000AB032FBF488B598B6A8B7B8B0381148124
:10354000C8010E94110B882349F0F80186818B3055
:1035500028F08D3040F08551823070F160E070E0ED
:1035600080EC9FE71BC0618170E090E080E00E94EA
:10357000D72B2DEC3CEC4CEC5DE30E948C2C6B01CA
:103580007C01F801608170E090E080E00E94D72B20
:103590009B01AC01C701B6010E94352B6C8B7D8B62
:1035A0008E8B9F8B81E0DF91CF911F910F91FF90C8
:1035B000EF90DF90CF900895608171817627672723
:1035C000762790E080E00E94D52B2DEC3CEC4CEC73
:1035D0005DE30E948C2CE2CF8F929F92AF92BF92BC
:1035E000EF92FF921F93CF93DF93EB01FB01349691
:1035F00020E2DF011D922A95E9F744E250E060E005
:1036000070E0488359836A837B83FC01458156813E
:10361000678170854C835D836E837F834DE050E0CE
:1036200060E070E0488759876A877B872FB7F894F6
:103630004091A8035091A9036091AA037091AB0334
:103640002FBF488B598B6A8B7B8BE380F480C7013B
:103650000E94110B882341F0F70186818C3009F418
:1036600055C038F48B30E1F060E070E080EC9FE70B
:103670003EC085518230C0F71281612F70E0762FF5
:10368000662766277F778381682B90E080E00E9421
:10369000D52B2DEC3CEC4CEC5DE30E948C2C51C006
:1036A000628170E090E080E00E94D52B4B015C01CC
:1036B000F701138117FF0AC0AC019B0160E070E0C5
:1036C00080E89FEB0E94342B4B015C011F70612F3F
:1036D00070E090E080E00E94D72B2DEC3CEC4CECAD
:1036E0005DE30E948C2CA50194010E94352B6C8B0C
:1036F0007D8B8E8B9F8B81E0DF91CF911F91FF900F
:10370000EF90BF90AF909F908F9008951281612F9E
:1037100070E090E080E00E94D52B4B015C01F70146
:1037200063816F7070E090E080E00E94D72B2DECF9
:103730003CEC4CEC5DE30E948C2CA50194010E94B2
:10374000352B17FFD4CF9058D2CF079621E2FC013A
:1037500011922A95E9F708950E94612EFB010190CC
:103760000020E9F73197AF01461B570BDC01ED91C3
:10377000FC910280F381E02D19948F929F92AF9279
:10378000BF920F931F93CF93DF93CDB7DEB7A1976F
:103790000FB6F894DEBF0FBECDBF19A2423008F4B9
:1037A0004AE08E010F5D1F4F842E912CB12CA12C6D
:1037B000A50194010E94122DE62FB901CA01EA3039
:1037C00004F5E05DD801EE938D01232B242B252BEE
:1037D00079F790E080E0109729F0BD018CEA93E042
:1037E0000E94AE1BA1960FB6F894DEBF0FBECDBFF0
:1037F000DF91CF911F910F91BF90AF909F908F90CD
:103800000895E95CDFCF4F925F926F927F928F9223
:103810009F92AF92BF92CF92DF92EF92FF926B0195
:103820007C01AC019B010E94F92C6AE972E08111D4
:1038300026C046015701E894B7F82FEF3FEF4FE756
:103840005FE7C501B4010E94F92C81110CC02FEF74
:103850003FEF4FE75FE7C501B4010E94A12B6EE97E
:1038600072E0181664F02FEF3FEF4FE75FE4C701F7
:10387000B6010E94872C181694F462EA72E08CEA72
:1038800093E0FF90EF90DF90CF90BF90AF909F902C
:103890008F907F906F905F904F900C94AE1B2FEFA6
:1038A0003FEF4FE75FECC701B6010E94A12B87FDF8
:1038B000E4CF20E030E0A901C701B6010E94A12BAE
:1038C000B12CA12C87FF0AC06DE28CEA93E00E9424
:1038D0002E085C01F7FAF094F7F8F0942AE037ED3F
:1038E00043EA5BE3C701B6010E94352B2B013C0183
:1038F0000E94A62B6B017C010E94D52B9B01AC0181
:10390000C301B2010E94342B2B013C014AE0C701E4
:10391000B6010E94BD1B7C01EA0CFB1C6EE28CEA26
:1039200093E00E942E08E80EF91E20E030E040E20D
:1039300051E4C301B2010E948C2C2B013C010E9476
:10394000A62B4B01B12CA12C4AE0C501B4010E9469
:10395000BD1BE80EF91EC501B4010E94D52B9B01C9
:10396000AC01C301B2010E94342B20E030E040E200
:1039700051E40E948C2C0E94A62B90E080E04AE04B
:103980000E94BD1B8E0D9F1DFF90EF90DF90CF908A
:10399000BF90AF909F908F907F906F905F904F906F
:1039A00008950F931F93CF93DF93EC010E94740748
:1039B0008C0166EA72E0CE010E94AE1B800F911F5F
:1039C000DF91CF911F910F9108956115710511F04D
:1039D0000C94AE1B90E080E008950F931F93CF935B
:1039E000DF9369EA72E08CEA93E00E94E51CCAE981
:1039F000D3E08E01F80161918F0170E090E080E0EA
:103A00004AE00E94BD1BF3E0043A1F0799F769EAF8
:103A100072E08CEA93E00E94AE1B66EA72E08CEAE8
:103A200093E00E94AE1B81E0899393E0C43AD907EA
:103A3000D9F7DF91CF911F910F910895CF93DF9325
:103A4000EB01FC0183894BE050E061EB72E08C30CC
:103A5000C1F058F44BE050E06BEA72E08B3089F033
:103A60004BE050E063EC72E00CC04BE050E067EBE1
:103A700072E0853131F04BE050E06DEB72E0863161
:103A800079F7CE010E94802E1B86DF91CF91089599
:103A90000F931F93CF93DF938C01EB0188E2DB013F
:103AA0001D928A95E9F7F801838194810E941E1D79
:103AB00081E090E0A0E0B0E08C879D87AE87BF8773
:103AC000F80185819681A781B085888B998BAA8B17
:103AD000BB8B8CE090E0A0E0B0E08C8B9D8BAE8B3C
:103AE000BF8BBE01838194810E94C40AD8011396C2
:103AF000ED91FC9183898C3009F441C078F48B30CE
:103B000009F1188E198E1A8E1B8E1C8E1D8E1E8E1C
:103B10001F8E18A219A21AA21BA22CC08551823096
:103B200080F780E090E0A8ECB2E4888F998FAA8FAC
:103B3000BB8F1C8E1D8E1E8E1F8E8DEC9CECACECF4
:103B4000BDE314C080E090E0A0EAB2E4888F998FD2
:103B5000AA8FBB8F80E090E0A0EAB1E48C8F9D8FAC
:103B6000AE8FBF8F80E090E0A0EAB0E488A399A375
:103B7000AAA3BBA3DF91CF911F910F91089580E07D
:103B800090E0AEEBB2E4E2CF0F931F93CF93DF93BD
:103B90008C01EB0188E2DB011D928A95E9F7F801BF
:103BA000838194810E941E1D81E090E0A0E0B0E03E
:103BB0008C879D87AE87BF87F80185819681A78115
:103BC000B085888B998BAA8BBB8B8DE090E0A0E0B1
:103BD000B0E08C8B9D8BAE8BBF8BBE0183819481BB
:103BE0000E94C40AD8011396ED91FC9183898C3010
:103BF00091F178F48B30B1F0188E198E1A8E1B8EDD
:103C00001C8E1D8E1E8E1F8E18A219A21AA21BA218
:103C10001DC08531A9F1863179F780E090E0AAEFE7
:103C2000B2E432C080E090E0A8E4B2E4888F998FDB
:103C3000AA8FBB8F1C8E1D8E1E8E1F8E80E090E083
:103C4000A0E0B0E488A399A3AAA3BBA3DF91CF917E
:103C50001F910F91089580E090E0A0E7B2E4888F73
:103C6000998FAA8FBB8F80E090E0A0EAB1EC8C8F97
:103C70009D8FAE8FBF8F80E090E0A0E0BFE3E2CFEA
:103C800080E090E0A0EAB2E4888F998FAA8FBB8F82
:103C900080E090E0A0E2B2EC8C8F9D8FAE8FBF8F62
:103CA0008DEC9CECACECBDE3CDCF85ED8093BC00FE
:103CB00080911F0390912003A0912103B0912203D2
:103CC0000796A11DB11D23E0B695A79597958795F9
:103CD0002A95D1F72091BC0024FD03C010926803FF
:103CE000089540911F03509120036091210370912A
:103CF0002203452B462B472B69F30097A105B105FD
:103D000041F025E32A95F1F700000197A109B109D7
:103D1000E1CF80911E030C947A15EF92FF920F93DE
:103D20001F93CF93DF938C01EB017A01DC01ED91BE
:103D3000FC910680F781E02D1995282F882371F0DA
:103D40002196CC0FDD1FC00FD11FB701888199814B
:103D50000E946D2E21E0892B09F020E0822FDF9157
:103D6000CF911F910F91FF90EF900895CF93DF9324
:103D7000EA010E941D0C009731F0BE010E946D2ED9
:103D800021E0892B09F020E0822FDF91CF91089567
:103D9000DF92EF92FF920F931F93CF93DF93CDB7F4
:103DA000DEB7AD970FB6F894DEBF0FBECDBF8C0166
:103DB00061E070E00E941D0CBC018CEA93E00E945F
:103DC000E51C68EC72E08CEA93E00E94E51C44ED8F
:103DD00052E061E070E0C8010E94B61E882309F439
:103DE0007AC065E070E0C8010E941D0C0E940E2B95
:103DF000E82E64E070E0C8010E941D0C0E940E2BAA
:103E0000F82E63E070E0C8010E941D0C0E940E2B8A
:103E1000D82E62E070E0C8010E941D0C0E940E2B9B
:103E20002091B2043091B3048217930760F44F2DB0
:103E300050E070E060E0762F652F542F44276D2905
:103E40004E290E9407070E94C20962E070E0C80183
:103E50000E941D0CBC018CEA93E00E94E51C68ECFA
:103E600072E08CEA93E00E94E51C63E070E0C80118
:103E70000E941D0CBC018CEA93E00E94E51C68ECDA
:103E800072E08CEA93E00E94E51C64E070E0C801F7
:103E90000E941D0CBC018CEA93E00E94E51C68ECBA
:103EA00072E08CEA93E00E94E51C65E070E0C801D6
:103EB0000E941D0CBC018CEA93E00E94E51C68EC9A
:103EC00072E08CEA93E00E94AE1B66EA72E08CEA34
:103ED00093E00E94AE1B4AEC52E061E070E0C80142
:103EE0000E94B61E8823E9F10E94461A62E070E043
:103EF000C8010E941D0C0E940E2B811101C081E09F
:103F00008093E6048093E70464E070E0C8010E94B7
:103F10001D0C0E940E2B7C0163E070E0C8010E9422
:103F20001D0C0E940E2B9093DF048093DE04F09210
:103F3000E104E092E00465E070E0C8010E941D0C1D
:103F4000BC0182ED94E00E94E51C66E070E0C801CF
:103F50000E941D0CBC0182ED94E00E94E51C0E94B1
:103F6000BE184CEC52E061E070E0C8010E94B61E41
:103F7000882309F401C14EEC52E062E070E0C80110
:103F80000E94B61E81110E941E1841ED52E062E0AF
:103F900070E0C8010E94B61E882321F00E941E18FE
:103FA0000E94641844ED52E062E070E0C8010E9493
:103FB000B61E8823E9F10E941E188091EF049091AB
:103FC000F004892B09F47CC1609107057091080504
:103FD0008091090590910A050E94491562E083E4E9
:103FE00092E00E94071760E082ED94E00E94BC1707
:103FF00060E082ED94E00E94BC176FE082ED94E0F7
:104000000E94BC1763E080E492E00E940717809151
:10401000EF049091F004892B09F469C160910B05BC
:1040200070910C0580910D0590910E050E94491527
:1040300040ED52E062E070E0C8010E94B61E8823A5
:1040400009F448C00E941E188091EF049091F0047A
:10405000892B09F456C1609107057091080580917C
:10406000090590910A050E94491562E089E492E0F1
:104070000E9407176091D80482ED94E00E94BC175B
:1040800062E087E492E00E94071760E082ED94E02E
:104090000E94BC1760E082ED94E00E94BC1767E0CC
:1040A00082ED94E00E94BC1762E085E492E00E94F9
:1040B00007178091EF049091F004892B09F438C11F
:1040C00060910B0570910C0580910D0590910E0586
:1040D0000E94491543ED52E062E070E0C8010E9481
:1040E000B61E882309F448C00E941E188091EF0470
:1040F0009091F004892B09F425C160910705709116
:1041000008058091090590910A050E94491562E011
:104110008FE492E00E9407176091D80482ED94E04A
:104120000E94BC1762E08DE492E00E94071760E0F5
:1041300082ED94E00E94BC1760E082ED94E00E9462
:10414000BC1767E082ED94E00E94BC1762E08BE44C
:1041500092E00E9407178091EF049091F004892B60
:1041600009F407C160910B0570910C0580910D0554
:1041700090910E050E94491546ED52E061E070E015
:10418000C8010E94B61E882309F46FC080915F04A5
:104190008FA38AE492E09EA38DA380916004909106
:1041A000610499A788A78091620490916304A0910B
:1041B0006404B09165048AA79BA7ACA7BDA7BE0104
:1041C0006F5F7F4FCE0185960E94EC1A6D897E89C4
:1041D0008F89988D9B01AC010E94F92C882309F4EA
:1041E000D2C067E872E08CEA93E00E94D11C809113
:1041F00068048FA38CE392E09EA38DA38091690451
:1042000090916A0499A788A780916B0490916C049F
:10421000A0916D04B0916E048AA79BA7ACA7BDA71F
:10422000BE016F5F7F4FCE0185960E94661A6D8931
:104230007E898F89988D9B01AC010E94F92C61E5E4
:1042400072E081110EC06BE672E08CEA93E00E948E
:1042500074076D897E898F89988D0E94031C69E699
:1042600072E08CEA93E00E94D11C4BED52E061E0D9
:1042700070E0C8010E94B61E8823A1F062E070E0E1
:10428000C8010E941D0C0E940E2B8C0161E084E08D
:104290000E9461090115110509F088C060E084E001
:1042A0000E943309AD960FB6F894DEBF0FBECDBFA6
:1042B000DF91CF911F910F91FF90EF90DF900895C4
:1042C0008091ED049091EE04892B31F080911005DE
:1042D000909111050E942A0FE0910105F0910205CD
:1042E00090818091060580958923808377CEE09127
:1042F0000105F0910205808190910605892B80834C
:1043000097CE8091ED049091EE04892B31F080914D
:104310001005909111050E942A0FE0910105F0917E
:1043200002059081809106058095892380839DCE2A
:10433000E0910105F0910205808190910605892B9D
:104340008083C8CE8091ED049091EE04892B31F0EA
:1043500080911005909111050E942A0FE0910105AE
:10436000F0910205908180910605809589238083D4
:10437000CECEE0910105F091020580819091060575
:10438000892B8083F9CE69E772E08CEA93E00E9482
:1043900074076D897E898F89988D0E94031C66E75A
:1043A00072E08CEA93E00E94740721CF0F3F110561
:1043B00011F461E074CFE1EBFCE0E491E150E23113
:1043C00008F0B0C0F0E08827E751FE4D8F4F0C9405
:1043D000342DFB21002205220F22192292222322B2
:1043E0002B2233223D224722512260226A2292222E
:1043F00074227E22882284B5806884BD07BD52CF96
:1044000084B5806284BD08BD4DCF809180008068F6
:1044100080938000109389000093880043CF80919F
:10442000800080628093800010938B0000938A004C
:1044300039CF8091800088608093800010938D0038
:1044400000938C002FCF8091B00080688093B000E3
:104450000093B30027CF8091B00080628093B000BA
:104460000093B4001FCF80919000806880939000EB
:10447000109399000093980015CF8091900080626E
:104480008093900010939B0000939A000BCF809133
:10449000900088608093900010939D0000939C0092
:1044A00001CF8091A00080688093A0008091A0003F
:1044B0008F7B8093A0001093A9000093A800F2CEF8
:1044C0008091A00080628093A0001093AB000093C5
:1044D000AA00E8CE8091A00088608093A00010938D
:1044E000AD000093AC00DECE809120018068809307
:1044F00020011093290100932801D4CE809120013E
:1045000080628093200110932B0100932A01CACE70
:104510008091200188608093200110932D010093E9
:104520002C01C0CE003811050CF043CFB7CE1F923E
:104530000F920FB60F9211240BB60F922F933F9349
:104540004F935F936F937F938F939F93AF93BF939B
:10455000EF93FF938CEA93E00E940C08FF91EF9198
:10456000BF91AF919F918F917F916F915F914F918B
:104570003F912F910F900BBE0F900FBE0F901F9089
:1045800018951F920F920FB60F9211240BB60F922F
:104590002F938F939F93EF93FF93E091BC03F09140
:1045A000BD038081E091C203F091C30382FD1DC071
:1045B00090818091C5038F5F8F732091C60382170E
:1045C00041F0E091C503F0E0E455FC4F958F8093F6
:1045D000C503FF91EF919F918F912F910F900BBE8B
:1045E0000F900FBE0F901F9018958081F2CF1F92F1
:1045F0000F920FB60F9211242F933F938F939F9397
:10460000AF93BF938091A8039091A903A091AA03AF
:10461000B091AB0330918E0323E0230F2D3758F573
:104620000196A11DB11D20938E038093A803909342
:10463000A903A093AA03B093AB0380918F03909139
:104640009003A0919103B09192030196A11DB11D19
:1046500080938F0390939003A0939103B093920360
:10466000BF91AF919F918F913F912F910F900FBE6E
:104670000F901F90189526E8230F0296A11DB11DDB
:10468000D2CF1F920F920FB60F9211240BB60F923A
:104690002F933F934F935F936F937F938F939F934A
:1046A000AF93BF93EF93FF938091B900887F8036DB
:1046B00009F44DC008F040C0883209F4A9C028F5BB
:1046C000803109F49DC0C8F4882309F4FBC0883008
:1046D00009F496C0FF91EF91BF91AF919F918F9197
:1046E0007F916F915F914F913F912F910F900BBEF2
:1046F0000F900FBE0F901F901895883109F488C055
:10470000803241F78093670314C0803409F49DC060
:1047100040F48033B9F38833E9F68093670385EC7E
:10472000B0C0803509F485C0883509F496C0883456
:1047300089F60E94551ECECF883909F48CC038F511
:10474000883729F050F4883611F0803719F683E065
:10475000809368031092660357C0883809F47BC0C1
:10476000803919F0803809F0B5CF80916603803226
:1047700008F071C0E091660381E08E0F80936603BC
:104780008091BB00F0E0EA5BFC4F80833DC0803B42
:1047900039F0E0F4803A09F479C0883A09F09ACF08
:1047A00084E0809368031092450310924403E091E3
:1047B0009603F091970319958091440381110FC0DE
:1047C00081E0809344031092240309C0803C09F4E3
:1047D000A6CF883C09F4A3CF883B09F07BCFE091BA
:1047E000450381E08E0F80934503F0E0EC5DFC4FC4
:1047F00080818093BB00909145038091440329C040
:1048000080918D038093BB0085EC8093BC0062CFC8
:1048100090918C0380918B03981758F5E0918C034D
:1048200081E08E0F80938C03F0E0E559FC4F80818E
:10483000E9CFE0918C0381E08E0F80938C0380910F
:10484000BB00F0E0E559FC4F808390918C03809190
:104850008B039817C8F285E8D8CFE0918C0381E0EC
:104860008E0F80938C038091BB00F0E0E559FC4FE4
:10487000808380916A0381115CCF81E0809369031A
:1048800084EA8093BC001092680324CF85EC809367
:10489000BC001092680380916603803230F4E0918E
:1048A0006603F0E0EA5BFC4F10826091660370E003
:1048B000E0919403F091950386E493E019951092AA
:1048C000660308CF1092670334CF1092AF031092A3
:1048D000AE0388EE93E0A0E0B0E08093B003909345
:1048E000B103A093B203B093B30328E132E0309355
:1048F000AD032093AC0325EC30E03093B903209353
:10490000B80324EC30E03093BB032093BA0320ECCF
:1049100030E03093BD032093BC0321EC30E03093B2
:10492000BF032093BE0322EC30E03093C1032093F9
:10493000C00326EC30E03093C3032093C2031092EF
:10494000C5031092C6031092C7031092C8031092B9
:10495000C9041092C8048093CA049093CB04A09316
:10496000CC04B093CD048AE292E09093C704809384
:10497000C6041092D5041092D40420E830E030939D
:10498000D7042093D60480E290E09093D9048093DA
:10499000D8043093DB042093DA049093DD048093F1
:1049A000DC041092E8041092DF041092DE041092EE
:1049B000E1041092E00481E08093E7048093E60430
:1049C0002FEF3FEF3093E5042093E4043093E304AA
:1049D0002093E2048093E9041092EA041092EC041C
:1049E0001092EB0422E732E03093D3042093D204F8
:1049F0001092EE041092ED0426EC34E03093F004B3
:104A00002093EF041092F2041092F1049FEF909320
:104A1000F6049093F7049093F8049093F90490931C
:104A2000FA0440E85AE166E070E0409307055093CD
:104A300008056093090570930A0540EA56E861E0AD
:104A400070E040930B0550930C0560930D05709337
:104A50000E0590E590931005109211051092B10487
:104A60001092B8041092BF041092C0041092C104B6
:104A70001092C2041092BE041092BB048093BC0436
:104A800092E09093BD048093B00481E290E0909313
:104A9000B5048093B4040E943C2D9093BA04809393
:104AA000B904009709F4B9C021E2DC011D922A95EE
:104AB000E9F78BE090E09093B3048093B20482E036
:104AC00090E09093B7048093B6048091B10488235A
:104AD00041F061E082E00E94610960E082E00E94B2
:104AE0003309EFE5FDE0E491F0E0EE0FFF1FED5B31
:104AF000F24F859194919093C4048093C304EFEF97
:104B0000FCE0E491E093C5041092AF041092AE046F
:104B100086E0E2EAF4E0DF01982F1D929A95E9F72A
:104B2000E8EAF4E0DF011D928A95E9F782E692E077
:104B30009093A1048093A0048AE080937A0488E093
:104B400080937B0410927D0410927C0410927E046A
:104B500088E592E0909379048093780488E794E064
:104B60000E94A51B10926F041092700480E2809343
:104B700071041092730410927204109275041092D2
:104B80007404109277041092760429E434E085E0EE
:104B900080934E048BE080934F04E2E0FDE0E491CB
:104BA000E0935004E2E6FDE0E491E093510440E834
:104BB0005EE360E070E040935604509357046093C6
:104BC00058047093590480935C048AE492E09093B3
:104BD0005E0480935D0430936104209360048FEF42
:104BE0009FEFDC018093620490936304A0936404BC
:104BF000B09365044CE352E050936704409366041D
:104C000030936A042093690480936B0490936C043E
:104C1000A0936D04B0936E0408951092B5041092A1
:104C2000B4041092B3041092B20449CF789484B5BE
:104C3000826084BD84B5816084BD85B5826085BD98
:104C400085B5816085BD80916E00816080936E0026
:104C50001092810080918100826080938100809118
:104C600081008160809381008091800081608093C9
:104C700080008091B10084608093B1008091B00089
:104C800081608093B0008091910082608093910058
:104C9000809191008160809391008091900081606B
:104CA000809390008091A10082608093A100809108
:104CB000A10081608093A1008091A0008160809319
:104CC000A0008091210182608093210180912101C7
:104CD0008160809321018091200181608093200177
:104CE00080917A00846080937A0080917A0082605B
:104CF00080937A0080917A00816080937A0080911D
:104D00007A00806880937A001092C100E091BC0321
:104D1000F091BD0382E08083E091B803F091B90384
:104D20001082E091BA03F091BB0380E1808310927E
:104D3000C403E091C003F091C10386E08083E09159
:104D4000BE03F091BF03808180618083E091BE0348
:104D5000F091BF03808188608083E091BE03F09171
:104D6000BF03808180688083E091BE03F091BF0320
:104D700080818F7D80838091F1049091F204892B52
:104D800011F10E94461A2091D8043091D9048091E3
:104D9000D6049091D704213231050CF0ACC0B90192
:104DA0006052710977FF02C06F5F7F4F75956795FD
:104DB0008357910997FD019600E210E023E730E068
:104DC0004EED57E0ABC02091D8043091D904C90111
:104DD000079697FD0796B3E095958795BA95E1F705
:104DE0002091D6043091D704AC01429FC001439F6B
:104DF000900D529F900D11240E943C2D9093F2042F
:104E00008093F104892B09F0BCCF0E94BE1860ED9D
:104E100077E080E090E00E94920A0E94461A62E0E9
:104E200082ED94E00E942E0F82E08093E60480934E
:104E3000E70481E090E09093E5048093E40490938C
:104E4000E3048093E2048AE090E09093DF0480938F
:104E5000DE041092E1041092E0046EE77CE082ED43
:104E600094E00E94D11C0E94BE180E946418CAE0FF
:104E7000D2E004E112E062E089910E9461090C171E
:104E80001D07C9F78091B6049091B70497FD08C03B
:104E900061E00E94610960E08091B6040E943309DC
:104EA00081E08093B1040E94C2096091B804633329
:104EB00009F401C22091B9043091BA04615009F497
:104EC000F4C170E08FEF92E30E94FE2CF901409153
:104ED000B4045091B504CF01821B930B841795073E
:104EE00008F0E6C14081469FC001479F900D112404
:104EF00090833196ECCFB9016054710977FF02C0FD
:104F00006F5F7F4F759567958255910997FD019663
:104F100000E410E022E530E04EEB59E095958795EE
:104F20000E94141482E08093F4048091EF04909125
:104F3000F004892B09F4C3C08CE38093F30410922E
:104F40009903109298031092A5031092A4030E9453
:104F50005C1582E797E0909397038093960383E72D
:104F600097E090939503809394038091FA0487FDD2
:104F70001EC061E00E94610961E08091FA040E9414
:104F8000330961E070E080E090E00E94920A60E006
:104F90008091FA040E9433096AE070E080E090E0BA
:104FA0000E94920A61E08091FA040E943309809184
:104FB000EF049091F004892B09F440C1609107053A
:104FC000709108058091090590910A050E94491584
:104FD00064E08AED97E00E9407176091D804615061
:104FE00082ED94E00E94BC1764E086ED97E00E9499
:104FF00007178091F40460E1813009F064E182EDEB
:1050000094E00E94BC1764E082ED97E00E940717CD
:105010008FE880930F058091D6049091D704803853
:10502000910509F024C18091D8049091D90480346D
:10503000910509F02CC18091F404813009F015C16B
:105040008FE980930F05C2E16AED82ED94E00E9442
:10505000BC176C2F82ED94E00E94BC1761E882EDD2
:1050600094E00E94BC1760910F0582ED94E00E94CD
:10507000BC1769ED82ED94E00E94BC178091F404A6
:1050800062E2813009F061EF82ED94E00E94BC178A
:1050900066E08CEC97E00E9407178091EF049091F6
:1050A000F004892B09F4F7C060910B0570910C0591
:1050B00080910D0590910E050E944915A6CE61E0E4
:1050C0008091F8040E94610961E08091F9040E94D6
:1050D00061098091F804082E000C990BFC01E35A39
:1050E000F24FE491F0E0EE0FFF1FED5BF24F2591E0
:1050F0003491309300052093FF04FC01E350F34FFB
:10510000E491E09305058091F904082E000C990BB9
:10511000FC01E35AF24FE491F0E0EE0FFF1FED5B6C
:10512000F24FA591B491B0930205A0930105FC0143
:10513000E350F34FE491E09306058C91E82BEC9358
:105140008091ED049091EE04892B09F434C0CFB71F
:10515000F89480919303811127C0E2E9FDE08491E6
:10516000E2E3FDE09491E82FF0E0EE0FFF1FEE5434
:10517000F84FA591B491EC91E92321F461E085E326
:105180000E94330961E085E30E9461098CB580616A
:105190008CBD8CB580648CBD61E084E30E946109A4
:1051A00061E083E30E946109809193038F5F8093A4
:1051B0009303CFBFDACE61E08091F6040E946109CB
:1051C00061E08091F7040E9461098091F604082E45
:1051D000000C990BFC01E35AF24FE491F0E0EE0F62
:1051E000FF1FED5BF24F259134913093FC04209327
:1051F000FB04FC01E350F34FE491E093030580913D
:10520000F704082E000C990BFC01E35AF24FE491CD
:10521000F0E0EE0FFF1FED5BF24FA591B491B0935C
:10522000FE04A093FD04FC01E350F34FE491E093EE
:1052300004058C91E095E823EC9397CE8091ED04E2
:105240009091EE04892B31F0809110059091110519
:105250000E942A0FE0910105F09102059081809152
:105260000605809589238083B3CE8FECEACE803605
:10527000910569F48091D8049091D904409739F44C
:105280008091F404813029F480E180930F05C2E01D
:10529000DBCE8FEAFACFE0910105F0910205808123
:1052A00090910605892B8083B0CD70E060E00ECE32
:1052B00083E38093B804D0E0C0E08091B204909181
:1052C000B304C817D90788F440E050E06FE770E0F6
:1052D000CE010E9407070E94C20964E670E080E0E8
:1052E00090E00E94920A2196E8CF62E080914E04FD
:1052F0000E9461092FB7F8948091A8039091A903A7
:10530000A091AA03B091AB032FBF805D9740A10984
:10531000B1098093520490935304A0935404B09322
:10532000550487E380935B0461E084E00E94610997
:1053300060E085E00E94610910927E048091AE04D5
:105340009091AF0483309105C8F49C012F5F3F4FCB
:10535000F901EE0FFF1FE056FB4F42E052E0518390
:105360004083880F991FFC01E855FB4F8DEE9CE1AF
:10537000918380833093AF042093AE048091AE0478
:105380009091AF0483309105C8F49C012F5F3F4F8B
:10539000F901EE0FFF1FE056FB4F40E052E0518352
:1053A0004083880F991FFC01E855FB4F88EC9EE174
:1053B000918380833093AF042093AE049FE7E92E5E
:1053C00094E0F92E20E2C22ED12CAA24A3940AE95B
:1053D00013E0D0E0C0E0F80181918F01882339F11A
:1053E000FE01E65FFD4F208130E0F901E355F34F08
:1053F0008491F901E350F34FB490F901E35AF24F6D
:105400009490992079F081110E94CC08E92DF0E068
:10541000EE0FFF1FED56F34FA591B491EC91BE2214
:1054200081E009F480E0F801319781708083219652
:10543000CA30D10581F68CEA93E00E94F607892BE9
:1054400051F080917C0490917D04809738F0109207
:105450007D0410927C040E949B08B9CF8CEA93E0F3
:105460000E94D407C82F80917E04882329F06C2FD6
:105470008CEA93E00E942E0880917A04C81352C0EF
:10548000E0917C04F0917D04E158FB4F1082109272
:105490007D0410927C04109277041092760480911F
:1054A0007F048823C1F2F0927304E0927204D092D8
:1054B0007504C0927404B0916F0460917104062E5B
:1054C000000C770BA0917004E8E7F4E090E080E036
:1054D00040E030E020E05781511156C090937704AE
:1054E000809376042115310559F022583B4FF9017C
:1054F0002081222329F001969093770480937604EB
:105500008091760490917704019609F4A4CF6FE618
:1055100074E080EA94E00E94850C88E794E00E94A1
:10552000A51B99CF80917B04C8131BC080917C047C
:1055300090917D040097A9F0019790937D0480934A
:105540007C0480917E04882309F485CF60E28CEA94
:1055500093E00E942E086C2F8CEA93E00E942E08A4
:105560007ACFC03208F477CF80917C0490917D048B
:105570009C012F5F3F4F30937D0420937C04815822
:105580009B4FFC01C08367CF8E3FCFEF9C0709F490
:10559000A5CFB1110CC0523251F417824A25211502
:1055A000310581F05681552369F001960BC04111F8
:1055B00009C05617170611F41782F1CFAA2371F00C
:1055C0005D33D1F32F5F3F4F31962032310509F023
:1055D00082CF909377048093760499CF4A2FF2CFAD
:1055E0008091B9049091BA040E94D82D8091B6049C
:1055F0009091B70497FD03C060E00E94610982E7C3
:1056000092E09093D3048093D2048091F10490911E
:10561000F204009711F00C94D82D0895FC0188270E
:105620009927E89421912032E9F3293010F02E30A7
:10563000C8F32B3241F02D3239F4689404C00E9433
:105640002C2B820F911D219120532A30C0F31EF480
:10565000909581959F4F08957AE0979F902D879F11
:10566000802D910D112408955058BB27AA270E9420
:105670004C2B0C944D2C0E943F2C38F00E94462C51
:1056800020F039F49F3F19F426F40C943C2C0EF4CE
:10569000E095E7FB0C94362CE92F0E945E2C58F322
:1056A000BA17620773078407950720F079F4A6F507
:1056B0000C94802C0EF4E0950B2EBA2FA02D0B012C
:1056C000B90190010C01CA01A0011124FF27591B47
:1056D00099F0593F50F4503E68F11A16F040A22F4D
:1056E000232F342F4427585FF3CF469537952795BE
:1056F000A795F0405395C9F77EF41F16BA0B620BBD
:10570000730B840BBAF09150A1F0FF0FBB1F661F03
:10571000771F881FC2F70EC0BA0F621F731F841F46
:1057200048F4879577956795B795F7959E3F08F06C
:10573000B0CF9395880F08F09927EE0F979587952E
:1057400008950E94122C08F481E008950E94662CAE
:1057500088F09F5798F0B92F9927B751B0F0E1F032
:10576000660F771F881F991F1AF0BA95C9F714C0E2
:10577000B13091F00E94802CB1E008950C94802CFF
:10578000672F782F8827B85F39F0B93FCCF386951B
:1057900077956795B395D9F73EF490958095709578
:1057A00061957F4F8F4F9F4F0895E89409C097FBF5
:1057B0003EF490958095709561957F4F8F4F9F4FE8
:1057C0009923A9F0F92F96E9BB279395F69587952C
:1057D00077956795B795F111F8CFFAF4BB0F11F4EF
:1057E00060FF1BC06F5F7F4F8F4F9F4F16C0882396
:1057F00011F096E911C0772321F09EE8872F762FCC
:1058000005C0662371F096E8862F70E060E02AF00C
:105810009A95660F771F881FDAF7880F96958795F8
:1058200097F90895990F0008550FAA0BE0E8FEEFCD
:1058300016161706E807F907C0F012161306E40754
:10584000F50798F0621B730B840B950B39F40A264D
:1058500061F0232B242B252B21F408950A2609F42B
:10586000A140A6958FEF811D811D089597F99F672F
:1058700080E870E060E008959FEF80EC08950024D8
:105880000A941616170618060906089500240A94A5
:1058900012161306140605060895092E0394000C2B
:1058A00011F4882352F0BB0F40F4BF2B11F460FFBA
:1058B00004C06F5F7F4F8F4F9F4F089557FD9058E3
:1058C000440F551F59F05F3F71F04795880F97FBC4
:1058D000991F61F09F3F79F087950895121613067E
:1058E0001406551FF2CF4695F1DF08C016161706AD
:1058F0001806991FF1CF86957105610508940895E2
:10590000E894BB2766277727CB0197F908950E9473
:10591000122C08F48FEF08950E949F2C0C944D2CAC
:105920000E943F2C38F00E94462C20F0952311F065
:105930000C94362C0C943C2C11240C94812C0E9439
:105940005E2C70F3959FC1F3950F50E0551F629F39
:10595000F001729FBB27F00DB11D639FAA27F00DC8
:10596000B11DAA1F649F6627B00DA11D661F829FEF
:105970002227B00DA11D621F739FB00DA11D621FD4
:10598000839FA00D611D221F749F3327A00D611DF1
:10599000231F849F600D211D822F762F6A2F1124D3
:1059A0009F5750409AF0F1F088234AF0EE0FFF1F06
:1059B000BB1F661F771F881F91505040A9F79E3F5D
:1059C000510580F00C94362C0C94812C5F3FE4F34D
:1059D000983ED4F3869577956795B795F795E795B3
:1059E0009F5FC1F7FE2B880F911D9695879597F9BC
:1059F00008950E94122C880B990B0895AA1BBB1BBB
:105A000051E107C0AA1FBB1FA617B70710F0A61BBE
:105A1000B70B881F991F5A95A9F780959095BC01DF
:105A2000CD010895A1E21A2EAA1BBB1BFD010DC0DA
:105A3000AA1FBB1FEE1FFF1FA217B307E407F5073E
:105A400020F0A21BB30BE40BF50B661F771F881F1A
:105A5000991F1A9469F760957095809590959B01B0
:105A6000AC01BD01CF010895EE0FFF1F881F8BBF52
:105A70000790F691E02D19940F931F93CF93DF9326
:105A80008230910510F482E090E0E0911405F091ED
:105A9000150530E020E0B0E0A0E0309799F4211542
:105AA000310509F44AC0281B390B24303105D8F5DB
:105AB0008A819B816115710589F1FB019383828342
:105AC000FE0111C04081518102811381481759079D
:105AD000E0F04817590799F4109761F012960C936B
